{
  "contractName": "Adoption",
  "abi": [
    {
      "constant": true,
      "inputs": [
        {
          "internalType": "uint256",
          "name": "",
          "type": "uint256"
        }
      ],
      "name": "adopters",
      "outputs": [
        {
          "internalType": "address",
          "name": "",
          "type": "address"
        }
      ],
      "payable": false,
      "stateMutability": "view",
      "type": "function"
    },
    {
      "constant": false,
      "inputs": [
        {
          "internalType": "uint256",
          "name": "petId",
          "type": "uint256"
        }
      ],
      "name": "adopt",
      "outputs": [
        {
          "internalType": "uint256",
          "name": "",
          "type": "uint256"
        }
      ],
      "payable": false,
      "stateMutability": "nonpayable",
      "type": "function"
    },
    {
      "constant": true,
      "inputs": [],
      "name": "getAdoptors",
      "outputs": [
        {
          "internalType": "address[16]",
          "name": "",
          "type": "address[16]"
        }
      ],
      "payable": false,
      "stateMutability": "view",
      "type": "function"
    }
  ],
  "bytecode": "0x608060405234801561001057600080fd5b506102b9806100206000396000f3fe608060405234801561001057600080fd5b50600436106100415760003560e01c806343ae80d3146100465780638588b2c5146100b4578063f500364c146100f6575b600080fd5b6100726004803603602081101561005c57600080fd5b810190808035906020019092919050505061013c565b604051808273ffffffffffffffffffffffffffffffffffffffff1673ffffffffffffffffffffffffffffffffffffffff16815260200191505060405180910390f35b6100e0600480360360208110156100ca57600080fd5b810190808035906020019092919050505061016f565b6040518082815260200191505060405180910390f35b6100fe6101e0565b6040518082601060200280838360005b8381101561012957808201518184015260208101905061010e565b5050505090500191505060405180910390f35b6000816010811061014957fe5b016000915054906101000a900473ffffffffffffffffffffffffffffffffffffffff1681565b60008082101580156101825750600f8211155b61018b57600080fd5b336000836010811061019957fe5b0160006101000a81548173ffffffffffffffffffffffffffffffffffffffff021916908373ffffffffffffffffffffffffffffffffffffffff160217905550819050919050565b6101e8610261565b6000601080602002604051908101604052809291908260108015610257576020028201915b8160009054906101000a900473ffffffffffffffffffffffffffffffffffffffff1673ffffffffffffffffffffffffffffffffffffffff168152602001906001019080831161020d575b5050505050905090565b60405180610200016040528060109060208202803883398082019150509050509056fea265627a7a72315820e882da90f1c4168ad4fa67da7c4d3a95473927050825e639a4ef657f5dbba13d64736f6c63430005100032",
  "source": "// SPDX-License-Identifier: SEE LICENSE IN LICENSE\npragma solidity ^0.5.0;\n\ncontract Adoption{\n    address[16] public adopters;\n\n    function adopt(uint petId) public returns(uint){\n        require(petId >= 0 && petId <=15);\n\n        adopters[petId] = msg.sender;\n\n        return petId;\n    }\n\n    function getAdoptors() public view returns(address[16] memory){\n        return adopters;\n    }\n}",
  "sourcePath": "/workspace/dapp/contracts/Adoption.sol",
  "compiler": {
    "name": "solc",
    "version": "0.5.16+commit.9c3226ce.Emscripten.clang"
  },
  "schemaVersion": "3.4.16",
  "updatedAt": "2023-09-08T21:07:03.294Z",
  "devdoc": {
    "methods": {}
  },
  "userdoc": {
    "methods": {}
  }
}